{
  "address": "0x31B2E48c8E17d3Cf2A8Ae8590788c94FD187f38F",
  "abi": [
    {
      "inputs": [
        {
          "internalType": "address",
          "name": "implAddress",
          "type": "address"
        }
      ],
      "stateMutability": "nonpayable",
      "type": "constructor"
    },
    {
      "anonymous": false,
      "inputs": [
        {
          "indexed": false,
          "internalType": "address",
          "name": "gameAddress",
          "type": "address"
        },
        {
          "indexed": false,
          "internalType": "uint256",
          "name": "gameId",
          "type": "uint256"
        }
      ],
      "name": "GameCreated",
      "type": "event"
    },
    {
      "inputs": [],
      "name": "battleshipImplAddr",
      "outputs": [
        {
          "internalType": "address",
          "name": "",
          "type": "address"
        }
      ],
      "stateMutability": "view",
      "type": "function"
    },
    {
      "inputs": [
        {
          "internalType": "address",
          "name": "teamtwo",
          "type": "address"
        }
      ],
      "name": "deployAndChallange",
      "outputs": [],
      "stateMutability": "nonpayable",
      "type": "function"
    },
    {
      "inputs": [],
      "name": "gameId",
      "outputs": [
        {
          "internalType": "uint256",
          "name": "",
          "type": "uint256"
        }
      ],
      "stateMutability": "view",
      "type": "function"
    },
    {
      "inputs": [],
      "name": "getGames",
      "outputs": [
        {
          "internalType": "contract BattleshipImpl[]",
          "name": "",
          "type": "address[]"
        }
      ],
      "stateMutability": "view",
      "type": "function"
    }
  ],
  "transactionHash": "0x0d2156b740f601fd4b61885a7c82a655e3e10fb44b65670f1d492399de90deb0",
  "args": [
    "0xBf6A740ebC973cfB8236050e2b54ff26D2f06513"
  ],
  "numDeployments": 3,
  "solcInputHash": "5b111706a6cf6245bf4c400234ec8153",
  "bytecode": "0x608060405234801561001057600080fd5b5060405161052838038061052883398101604081905261002f91610054565b600280546001600160a01b0319166001600160a01b0392909216919091179055610084565b60006020828403121561006657600080fd5b81516001600160a01b038116811461007d57600080fd5b9392505050565b610495806100936000396000f3fe608060405234801561001057600080fd5b506004361061004c5760003560e01c80631873516d14610051578063ae783a8214610081578063c04c594714610096578063d7c81b55146100ab575b600080fd5b600254610064906001600160a01b031681565b6040516001600160a01b0390911681526020015b60405180910390f35b61009461008f366004610370565b6100c2565b005b61009e6101fa565b60405161007891906103a0565b6100b460015481565b604051908152602001610078565b6002546000906100da906001600160a01b03166102b1565b6040517ff09a40160000000000000000000000000000000000000000000000000000000081523360048201526001600160a01b0384811660248301529192509082169063f09a401690604401600060405180830381600087803b15801561014057600080fd5b505af1158015610154573d6000803e3d6000fd5b505060018054600090815260208190526040812080547fffffffffffffffffffffffff0000000000000000000000000000000000000000166001600160a01b038716179055815491935091506101a9906103ed565b91829055506001819055604080516001600160a01b038416815260208101929092527f306841c3fce8498c2d9b7194b8da4c04d03847394e237b625ce6d029b107f077910160405180910390a15050565b6060600060015467ffffffffffffffff81111561021957610219610433565b604051908082528060200260200182016040528015610242578160200160208202803683370190505b50905060005b6001548110156102ab5760008181526020819052604090205482516001600160a01b039091169083908390811061028157610281610449565b6001600160a01b0390921660209283029190910190910152806102a3816103ed565b915050610248565b50919050565b6000763d602d80600a3d3981f3363d3d373d3d3d363d730000008260601b60e81c176000526e5af43d82803e903d91602b57fd5bf38260781b17602052603760096000f090506001600160a01b03811661036b576040517f08c379a000000000000000000000000000000000000000000000000000000000815260206004820152601660248201527f455243313136373a20637265617465206661696c656400000000000000000000604482015260640160405180910390fd5b919050565b60006020828403121561038257600080fd5b81356001600160a01b038116811461039957600080fd5b9392505050565b6020808252825182820181905260009190848201906040850190845b818110156103e15783516001600160a01b0316835292840192918401916001016103bc565b50909695505050505050565b60007fffffffffffffffffffffffffffffffffffffffffffffffffffffffffffffffff820361042c57634e487b7160e01b600052601160045260246000fd5b5060010190565b634e487b7160e01b600052604160045260246000fd5b634e487b7160e01b600052603260045260246000fdfea26469706673582212202c29916495963872602d080b64adc25a8e5b4ea8bab705bb30ba4e4d3041d91064736f6c63430008110033",
  "devdoc": {
    "kind": "dev",
    "methods": {},
    "version": 1
  },
  "userdoc": {
    "kind": "user",
    "methods": {},
    "version": 1
  },
  "storageLayout": {
    "storage": [
      {
        "astId": 94,
        "contract": "contracts/BattleshipFactory.sol:BattleshipFactory",
        "label": "BattleshipGames",
        "offset": 0,
        "slot": "0",
        "type": "t_mapping(t_uint256,t_contract(BattleshipImpl)557)"
      },
      {
        "astId": 96,
        "contract": "contracts/BattleshipFactory.sol:BattleshipFactory",
        "label": "gameId",
        "offset": 0,
        "slot": "1",
        "type": "t_uint256"
      },
      {
        "astId": 98,
        "contract": "contracts/BattleshipFactory.sol:BattleshipFactory",
        "label": "battleshipImplAddr",
        "offset": 0,
        "slot": "2",
        "type": "t_address"
      }
    ],
    "types": {
      "t_address": {
        "encoding": "inplace",
        "label": "address",
        "numberOfBytes": "20"
      },
      "t_contract(BattleshipImpl)557": {
        "encoding": "inplace",
        "label": "contract BattleshipImpl",
        "numberOfBytes": "20"
      },
      "t_mapping(t_uint256,t_contract(BattleshipImpl)557)": {
        "encoding": "mapping",
        "key": "t_uint256",
        "label": "mapping(uint256 => contract BattleshipImpl)",
        "numberOfBytes": "32",
        "value": "t_contract(BattleshipImpl)557"
      },
      "t_uint256": {
        "encoding": "inplace",
        "label": "uint256",
        "numberOfBytes": "32"
      }
    }
  }
}