{
  "address": "0x57A3D2d44b43cEd996d85E7bF5c4369cEDA702B0",
  "abi": [
    {
      "inputs": [
        {
          "internalType": "address",
          "name": "implAddress",
          "type": "address"
        }
      ],
      "stateMutability": "nonpayable",
      "type": "constructor"
    },
    {
      "anonymous": false,
      "inputs": [
        {
          "indexed": false,
          "internalType": "uint8",
          "name": "seasonId",
          "type": "uint8"
        },
        {
          "indexed": false,
          "internalType": "address",
          "name": "gameAddress",
          "type": "address"
        }
      ],
      "name": "NewConnectFourSeasonCreated",
      "type": "event"
    },
    {
      "inputs": [
        {
          "internalType": "uint8",
          "name": "",
          "type": "uint8"
        }
      ],
      "name": "connectFourGames",
      "outputs": [
        {
          "internalType": "contract ConnectFour",
          "name": "",
          "type": "address"
        }
      ],
      "stateMutability": "view",
      "type": "function"
    },
    {
      "inputs": [],
      "name": "deployNewSeason",
      "outputs": [
        {
          "internalType": "uint8",
          "name": "",
          "type": "uint8"
        }
      ],
      "stateMutability": "nonpayable",
      "type": "function"
    },
    {
      "inputs": [],
      "name": "getGames",
      "outputs": [
        {
          "internalType": "contract ConnectFour[]",
          "name": "",
          "type": "address[]"
        }
      ],
      "stateMutability": "view",
      "type": "function"
    }
  ],
  "transactionHash": "0x46f1510a489a836b59ba3ae27e7692044bf55c9e52cfa030f494288297eb1218",
  "args": [
    "0x459AF48f2E18b2943398835b4843079291F28a84"
  ],
  "numDeployments": 3,
  "solcInputHash": "22483277ccfc5902664767099fe0be34",
  "bytecode": "0x608060405234801561001057600080fd5b5060405161051a38038061051a83398101604081905261002f9161005a565b600080546001600160a01b0390921661010002610100600160a81b031990921691909117905561008a565b60006020828403121561006c57600080fd5b81516001600160a01b038116811461008357600080fd5b9392505050565b610481806100996000396000f3fe608060405234801561001057600080fd5b50600436106100415760003560e01c806314c7457114610046578063c04c594714610065578063c46f7fe71461007a575b600080fd5b61004e6100d5565b60405160ff90911681526020015b60405180910390f35b61006d6101c4565b60405161005c919061036e565b6100b06100883660046103c8565b60016020526000908152604090205473ffffffffffffffffffffffffffffffffffffffff1681565b60405173ffffffffffffffffffffffffffffffffffffffff909116815260200161005c565b6000805481906100ff90610100900473ffffffffffffffffffffffffffffffffffffffff166102a2565b6000805460ff908116825260016020908152604080842080547fffffffffffffffffffffffff00000000000000000000000000000000000000001673ffffffffffffffffffffffffffffffffffffffff87169081179091559354815193168352908201929092529192507f7a6fa76d0a77eb17c494725b653ed447a947a86a0fe8607f532e864f9ae9d4ec910160405180910390a16000805460ff1690806101a6836103f2565b91906101000a81548160ff021916908360ff16021790555091505090565b600080546060919060ff1667ffffffffffffffff8111156101e7576101e761041f565b604051908082528060200260200182016040528015610210578160200160208202803683370190505b50905060005b60005460ff908116908216101561029c5760ff8116600081815260016020526040902054835173ffffffffffffffffffffffffffffffffffffffff909116918491811061026557610265610435565b73ffffffffffffffffffffffffffffffffffffffff9092166020928302919091019091015280610294816103f2565b915050610216565b50919050565b6000763d602d80600a3d3981f3363d3d373d3d3d363d730000008260601b60e81c176000526e5af43d82803e903d91602b57fd5bf38260781b17602052603760096000f0905073ffffffffffffffffffffffffffffffffffffffff8116610369576040517f08c379a000000000000000000000000000000000000000000000000000000000815260206004820152601660248201527f455243313136373a20637265617465206661696c656400000000000000000000604482015260640160405180910390fd5b919050565b6020808252825182820181905260009190848201906040850190845b818110156103bc57835173ffffffffffffffffffffffffffffffffffffffff168352928401929184019160010161038a565b50909695505050505050565b6000602082840312156103da57600080fd5b813560ff811681146103eb57600080fd5b9392505050565b600060ff821660ff810361041657634e487b7160e01b600052601160045260246000fd5b60010192915050565b634e487b7160e01b600052604160045260246000fd5b634e487b7160e01b600052603260045260246000fdfea26469706673582212201c2ec3b66241793f9178b221f85f8d1bfba81348a3725eac76e118058bd5fe7c64736f6c63430008110033",
  "devdoc": {
    "kind": "dev",
    "methods": {},
    "version": 1
  },
  "userdoc": {
    "kind": "user",
    "methods": {},
    "version": 1
  },
  "storageLayout": {
    "storage": [
      {
        "astId": 1454,
        "contract": "contracts/ConnectFourFactory.sol:ConnectFourFactory",
        "label": "seasonId",
        "offset": 0,
        "slot": "0",
        "type": "t_uint8"
      },
      {
        "astId": 1456,
        "contract": "contracts/ConnectFourFactory.sol:ConnectFourFactory",
        "label": "connectFourImplAddr",
        "offset": 1,
        "slot": "0",
        "type": "t_address"
      },
      {
        "astId": 1461,
        "contract": "contracts/ConnectFourFactory.sol:ConnectFourFactory",
        "label": "connectFourGames",
        "offset": 0,
        "slot": "1",
        "type": "t_mapping(t_uint8,t_contract(ConnectFour)1442)"
      }
    ],
    "types": {
      "t_address": {
        "encoding": "inplace",
        "label": "address",
        "numberOfBytes": "20"
      },
      "t_contract(ConnectFour)1442": {
        "encoding": "inplace",
        "label": "contract ConnectFour",
        "numberOfBytes": "20"
      },
      "t_mapping(t_uint8,t_contract(ConnectFour)1442)": {
        "encoding": "mapping",
        "key": "t_uint8",
        "label": "mapping(uint8 => contract ConnectFour)",
        "numberOfBytes": "32",
        "value": "t_contract(ConnectFour)1442"
      },
      "t_uint8": {
        "encoding": "inplace",
        "label": "uint8",
        "numberOfBytes": "1"
      }
    }
  }
}