{
  "address": "0xB6567EA2801d95d3570324AFB7Ce5c0aB1EB303F",
  "abi": [
    {
      "inputs": [
        {
          "internalType": "address",
          "name": "implAddress",
          "type": "address"
        }
      ],
      "stateMutability": "nonpayable",
      "type": "constructor"
    },
    {
      "anonymous": false,
      "inputs": [
        {
          "indexed": false,
          "internalType": "uint8",
          "name": "seasonId",
          "type": "uint8"
        },
        {
          "indexed": false,
          "internalType": "address",
          "name": "gameAddress",
          "type": "address"
        }
      ],
      "name": "NewConnectFourSeasonCreated",
      "type": "event"
    },
    {
      "inputs": [
        {
          "internalType": "uint8",
          "name": "",
          "type": "uint8"
        }
      ],
      "name": "connectFourGames",
      "outputs": [
        {
          "internalType": "contract ConnectFour",
          "name": "",
          "type": "address"
        }
      ],
      "stateMutability": "view",
      "type": "function"
    },
    {
      "inputs": [],
      "name": "deployNewSeason",
      "outputs": [
        {
          "internalType": "uint8",
          "name": "",
          "type": "uint8"
        }
      ],
      "stateMutability": "nonpayable",
      "type": "function"
    },
    {
      "inputs": [],
      "name": "getGames",
      "outputs": [
        {
          "internalType": "contract ConnectFour[]",
          "name": "",
          "type": "address[]"
        }
      ],
      "stateMutability": "view",
      "type": "function"
    }
  ],
  "transactionHash": "0x193b57a021f34e3b815cd0418fc43240eadd9ad0f884dffa40a39bca8e401f9a",
  "args": [
    "0x01ffd68724f1f83f8c8cC9EcE8DCD94914FD85F9"
  ],
  "numDeployments": 1,
  "solcInputHash": "1928e4129e76ce2b685e501fe1608708",
  "bytecode": "0x608060405234801561001057600080fd5b5060405161047938038061047983398101604081905261002f9161005a565b600080546001600160a01b0390921661010002610100600160a81b031990921691909117905561008a565b60006020828403121561006c57600080fd5b81516001600160a01b038116811461008357600080fd5b9392505050565b6103e0806100996000396000f3fe608060405234801561001057600080fd5b50600436106100415760003560e01c806314c7457114610046578063c04c594714610065578063c46f7fe71461007a575b600080fd5b61004e6100bb565b60405160ff90911681526020015b60405180910390f35b61006d610178565b60405161005c91906102da565b6100a3610088366004610327565b6001602052600090815260409020546001600160a01b031681565b6040516001600160a01b03909116815260200161005c565b6000805481906100d89061010090046001600160a01b031661023c565b6000805460ff908116825260016020908152604080842080546001600160a01b0319166001600160a01b0387169081179091559354815193168352908201929092529192507f7a6fa76d0a77eb17c494725b653ed447a947a86a0fe8607f532e864f9ae9d4ec910160405180910390a16000805460ff16908061015a83610351565b91906101000a81548160ff021916908360ff16021790555091505090565b600080546060919060ff1667ffffffffffffffff81111561019b5761019b61037e565b6040519080825280602002602001820160405280156101c4578160200160208202803683370190505b50905060005b60005460ff90811690821610156102365760ff811660008181526001602052604090205483516001600160a01b03909116918491811061020c5761020c610394565b6001600160a01b03909216602092830291909101909101528061022e81610351565b9150506101ca565b50919050565b6000763d602d80600a3d3981f3363d3d373d3d3d363d730000008260601b60e81c176000526e5af43d82803e903d91602b57fd5bf38260781b17602052603760096000f090506001600160a01b0381166102d55760405162461bcd60e51b8152602060048201526016602482015275115490cc4c4d8dce8818dc99585d194819985a5b195960521b604482015260640160405180910390fd5b919050565b6020808252825182820181905260009190848201906040850190845b8181101561031b5783516001600160a01b0316835292840192918401916001016102f6565b50909695505050505050565b60006020828403121561033957600080fd5b813560ff8116811461034a57600080fd5b9392505050565b600060ff821660ff810361037557634e487b7160e01b600052601160045260246000fd5b60010192915050565b634e487b7160e01b600052604160045260246000fd5b634e487b7160e01b600052603260045260246000fdfea264697066735822122020bc13fdd1257a324e1f58265a730126e9c27bc144a205f24538c6cdb55478ac64736f6c63430008110033",
  "devdoc": {
    "kind": "dev",
    "methods": {},
    "version": 1
  },
  "userdoc": {
    "kind": "user",
    "methods": {},
    "version": 1
  },
  "storageLayout": {
    "storage": [
      {
        "astId": 1453,
        "contract": "contracts/ConnectFourFactory.sol:ConnectFourFactory",
        "label": "seasonId",
        "offset": 0,
        "slot": "0",
        "type": "t_uint8"
      },
      {
        "astId": 1455,
        "contract": "contracts/ConnectFourFactory.sol:ConnectFourFactory",
        "label": "connectFourImplAddr",
        "offset": 1,
        "slot": "0",
        "type": "t_address"
      },
      {
        "astId": 1460,
        "contract": "contracts/ConnectFourFactory.sol:ConnectFourFactory",
        "label": "connectFourGames",
        "offset": 0,
        "slot": "1",
        "type": "t_mapping(t_uint8,t_contract(ConnectFour)1441)"
      }
    ],
    "types": {
      "t_address": {
        "encoding": "inplace",
        "label": "address",
        "numberOfBytes": "20"
      },
      "t_contract(ConnectFour)1441": {
        "encoding": "inplace",
        "label": "contract ConnectFour",
        "numberOfBytes": "20"
      },
      "t_mapping(t_uint8,t_contract(ConnectFour)1441)": {
        "encoding": "mapping",
        "key": "t_uint8",
        "label": "mapping(uint8 => contract ConnectFour)",
        "numberOfBytes": "32",
        "value": "t_contract(ConnectFour)1441"
      },
      "t_uint8": {
        "encoding": "inplace",
        "label": "uint8",
        "numberOfBytes": "1"
      }
    }
  }
}